S00C00006D61696E2E7372656373
S113000059C0A0C072C071C070C06FC06EC06DC056
S11300106CC06BC06AC069C068C067C066C00501B7
S11300200905A1010901A10009300931150026FFC4
S113003000750895048102C00509190129081500F5
S11300402501750195088102C00902220001010001
S113005080320904000001030000000921010100AD
S113006001222B000705810308000A120110010078
S11300700000080912A7EB00020102000112035557
S11300800053004200730063006F0070006500209D
S11300900356006900630074006F00720047007229
S11300A000690067006F0072007900650076000443
S11300B00309040011241FBECFE5D2E0DEBFCDBF8B
S11300C010E0A0E6B0E0EEE8F8E002C005900D9282
S11300D0A236B107D9F720E0A2E6B0E001C01D9234
S11300E0A63AB207E1F7F0D1D0C38ACFA82FB92F2F
S11300F080E090E041E050EA609530E009C02D9145
S113010082279795879510F084279527305EC8F34A
S11301106F5FA8F30895EADF8D939D930895A6E099
S113012088279927AA9569F00197E1F3B099FCCF44
S1130130B09BFECF81E09927A6B3019611F0A5707C
S1130140D9F70895CF93CFB7CF93C395B09BE9F771
S1130150B09B09C0B09B07C0B09B05C0B09B03C057
S1130160B09B01C0A3C0DF93C0918900DD27C057B5
S1130170DF4FB09B02C0DF91EBCF2F930F931F9300
S113018006B32FEF00FB20F94F933F9316B34FEFC5
S1130190012700FB21F93BE031C04E7F012F16B34C
S11301A0216028C0102F4D7F2260000006B329C0B3
S11301B04B7F2460012F000016B32BC016B3477F7A
S11301C028602AC04F7E06B320612CC04F7D16B331
S11301D020622FC04F7B06B3206432C0422706B38F
S11301E049934FEF0000102710FB20F916B3157048
S11301F0C9F1297F91F2012700FB21F906B3237F7E
S113020089F2315058F1102710FB22F916B3277EDA
S113021079F2012700FB23F92F7C81F206B3102722
S113022010FB24F92F7971F200C016B3012700FBEB
S113023025F92F7359F200C006B3102710FB26F9D5
S1130240223040F200C016B3012700FB27F9243006
S113025028F64F77206816B30000F9CF10E41ABFD0
S1130260002719C03B503195C31BD04010E41ABF7E
S11302700881033CF9F00B34E9F0209187001981DF
S1130280110F1213EDCF4A81441F093641F10D328B
S113029011F0013E29F700938E003F914F911F9179
S11302A00F912F91DF91CAB7C6FD4FCFCF91CFBF2A
S11302B0CF91189520918E00222379F310918C0010
S11302C0112369F534306AF130938C00209388004F
S11302D0109189003BE0311B3093890022C00091CA
S11302E08C000130E4F40AE54F7049F43091610068
S11302F034FD19C000936100C0E7D0E018C030910C
S11303007B0034FD10C000937B00CCE7D0E00FC02D
S11303102795A8F45150A9F4220F0000F9CF4AE51B
S113032003C042ED01C0432FC4E1D0E032E017B373
S11303301560C09A17BB08B320E415E05F9301274A
S113034056E008BB279520F4515021F4220FF9CF31
S1130350012756E000003B5A08BBD0F2279528F449
S1130360515029F4220F0000F9CF012756E02795B8
S113037008BB20F4515021F4220FF9CF012756E095
S11303802991332308BB21F60A7F10918D00110FA8
S1130390C651D04008BB11F01093870010E41ABF77
S11303A0016017B31A7F402F4A7F5F9100C000C0DD
S11303B008BB17BB48BB71CF809164009091650066
S11303C09093690080936A00809162009091630029
S11303D090936B0080936C0081E080936D0008958E
S11303E029E630E030938B0020938A00FC012081C1
S11303F020762032C1F42181213019F4DDDF85E03B
S11304000895223041F488E690E090938B00809325
S11304108A0081E008952A3041F4FC0183818093AD
S1130420680080E0089580E0089580E00895DF92F8
S1130430EF92FF920F931F93CF93DF9308E010E0A6
S1130440E12C6894FF24F7F8DF2CDE0CD1BE67DEC4
S1130450EC01C13B86E0D8070CF4ED2CF694015076
S113046011090115110581F78FEF8E0D81BF81B739
S11304700E2D10E00F5F1F4F90E008171907BCF016
S11304804EDE815B96409C01992324F42227332776
S1130490281B390B2C173D0714F4E1B6E90181B789
S11304A08F5F81BF81B790E0081719074CF7E1BE51
S11304B061B780E090E0DBD1DF91CF911F910F9184
S11304C0FF90EF90DF90089580E090E0C8D18F3FD7
S11304D009F081BFB89A84E1E7ECFFEA3197F1F7BC
S11304E000C000008150C1F7B898B99A2EE088E1A5
S11304F090E00FB6F894A89581BD0FBE21BD83E9A5
S113050087B987E886B99ED1789481E080936700A3
S1130510C198CBE7D0E00F2EF2E9EF2EF02D0F2E8D
S1130520F3E9FF2EF02D11E000E0A89554D0888166
S113053084FF05C041DF65E089E690E02AD0369962
S1130540F4CF84B195B120916600222369F09C0117
S1130550220F331F95958795820F931F9093650003
S113056080936400F7B80CC09C01220F331F95954B
S11305708795820F931F9093630080936200E7B87E
S1130580812F909166009111802F80936600369A96
S1130590CCCFCF93C62F20917B0024FF07C0ECE77C
S11305A0F0E0308128E82327208303C02AE5209344
S11305B07B00E82FF92FADE7B0E08C2F91919D934C
S11305C08150E1F76C2F8DE790E0A5DDCC5FC093FF
S11305D07B00CF910895CF93DF9380918C0083505B
S11305E00AF4B4C020918900909188009D3209F0EA
S11305F0ABC0883009F0A8C0CCE0D0E0C21BD10960
S1130600C057DF4F83EC809370008AE580936100CC
S113061010926F008881807619F0CE01E1DE8BC0E4
S11306209A81109279008981811106C010927A0012
S113063029E730E082E07BC0853031F490938D006F
S113064029E730E080E073C0863009F050C08B8128
S1130650813041F48BE690E090938B0080938A0084
S113066082E141C0823041F489E490E090938B00B0
S113067080938A0082E237C08330F1F4911108C07C
S11306808FEA90E090938B0080938A0084E02BC0E3
S1130690913041F48FE890E090938B0080938A002E
S11306A080E221C09230E1F48DE790E090938B00DA
S11306B080938A0082E117C0813241F48BE590E097
S11306C090938B0080938A0089E00DC0823251F4AC
S11306D08EE190E090938B0080938A008BE203C0BC
S11306E080E001C080E090E490936F0024C08830E3
S11306F099F0893031F490938F0029E730E080E05D
S113070016C08A3069F08B3079F48BE480937C00D6
S113071029E730E080E00BC02FE830E081E007C03B
S113072029E730E081E003C029E730E080E030933E
S11307308B0020938A009F81911104C09E81981799
S113074008F4892F8093600010928C0080916100DE
S113075084FF4DC0809160008F3F09F448C0C82FCA
S1130760893008F0C8E08C1B80936000E0E7F0E07B
S1130770908188E889278083CC2309F45AC080912A
S11307808A0090918B0020916F0026FF11C0A1E791
S1130790B0E0FC012C2F34913D9331962150D9F7D0
S11307A02FEF2C0F30E02F5F3F4F820F931F0FC0AE
S11307B0DC01E1E7F0E02C2F3D9131932150E1F78A
S11307C02FEF2C0F30E02F5F3F4F820F931F90933A
S11307D08B0080938A006C2F81E790E09CDCCC5FD7
S11307E0CC3018F48FEF80936000C093610086B31F
S11307F08570B1F483E196B3957099F48150D9F77B
S113080010928D0010928700C1E08111C0E08091A8
S11308106E00C81302C013C00ADEC0936E000FC07E
S113082084E1C1E08111C0E080916E00C813F4CF6F
S113083006C06C2F81E790E06EDCCC5FD3CFDF91F4
S1130840CF91089585B7836085BF8BB780648BBFD4
S11308508BE480937C008AE580937B000895E19982
S1130860FECF9FBB8EBBE09A99278DB30895262FA8
S1130870E199FECF1CBA9FBB8EBB2DBB0FB6F8947B
S1110880E29AE19A0FBE01960895F894FFCF14
S105088EFF5A0B
S9030000FC
